{
	"SolvedProblems-stymrj/DigitsProduct.sol": {
		"DigitsProduct": {
			"abi": [
				{
					"inputs": [
						{
							"internalType": "uint256",
							"name": "num",
							"type": "uint256"
						}
					],
					"name": "getProduct",
					"outputs": [
						{
							"internalType": "uint256",
							"name": "",
							"type": "uint256"
						}
					],
					"stateMutability": "pure",
					"type": "function"
				}
			],
			"devdoc": {
				"kind": "dev",
				"methods": {},
				"version": 1
			},
			"evm": {
				"assembly": "    /* \"SolvedProblems-stymrj/DigitsProduct.sol\":243:489  contract DigitsProduct{... */\n  mstore(0x40, 0x80)\n  callvalue\n  dup1\n  iszero\n  tag_1\n  jumpi\n  0x00\n  dup1\n  revert\ntag_1:\n  pop\n  dataSize(sub_0)\n  dup1\n  dataOffset(sub_0)\n  0x00\n  codecopy\n  0x00\n  return\nstop\n\nsub_0: assembly {\n        /* \"SolvedProblems-stymrj/DigitsProduct.sol\":243:489  contract DigitsProduct{... */\n      mstore(0x40, 0x80)\n      callvalue\n      dup1\n      iszero\n      tag_1\n      jumpi\n      0x00\n      dup1\n      revert\n    tag_1:\n      pop\n      jumpi(tag_2, lt(calldatasize, 0x04))\n      shr(0xe0, calldataload(0x00))\n      dup1\n      0xb9db15b4\n      eq\n      tag_3\n      jumpi\n    tag_2:\n      0x00\n      dup1\n      revert\n        /* \"SolvedProblems-stymrj/DigitsProduct.sol\":278:478  function getProduct(uint num) public pure returns (uint ){... */\n    tag_3:\n      tag_4\n      0x04\n      dup1\n      calldatasize\n      sub\n      dup2\n      add\n      swap1\n      tag_5\n      swap2\n      swap1\n      tag_6\n      jump\t// in\n    tag_5:\n      tag_7\n      jump\t// in\n    tag_4:\n      mload(0x40)\n      tag_8\n      swap2\n      swap1\n      tag_9\n      jump\t// in\n    tag_8:\n      mload(0x40)\n      dup1\n      swap2\n      sub\n      swap1\n      return\n    tag_7:\n        /* \"SolvedProblems-stymrj/DigitsProduct.sol\":329:333  uint */\n      0x00\n        /* \"SolvedProblems-stymrj/DigitsProduct.sol\":346:354  uint ans */\n      dup1\n        /* \"SolvedProblems-stymrj/DigitsProduct.sol\":357:358  1 */\n      0x01\n        /* \"SolvedProblems-stymrj/DigitsProduct.sol\":346:358  uint ans = 1 */\n      swap1\n      pop\n        /* \"SolvedProblems-stymrj/DigitsProduct.sol\":369:448  while (num != 0){... */\n    tag_11:\n        /* \"SolvedProblems-stymrj/DigitsProduct.sol\":383:384  0 */\n      0x00\n        /* \"SolvedProblems-stymrj/DigitsProduct.sol\":376:379  num */\n      dup4\n        /* \"SolvedProblems-stymrj/DigitsProduct.sol\":376:384  num != 0 */\n      eq\n        /* \"SolvedProblems-stymrj/DigitsProduct.sol\":369:448  while (num != 0){... */\n      tag_12\n      jumpi\n        /* \"SolvedProblems-stymrj/DigitsProduct.sol\":412:414  10 */\n      0x0a\n        /* \"SolvedProblems-stymrj/DigitsProduct.sol\":407:410  num */\n      dup4\n        /* \"SolvedProblems-stymrj/DigitsProduct.sol\":407:414  num %10 */\n      tag_13\n      swap2\n      swap1\n      tag_14\n      jump\t// in\n    tag_13:\n        /* \"SolvedProblems-stymrj/DigitsProduct.sol\":400:414  ans *= num %10 */\n      dup2\n      tag_15\n      swap2\n      swap1\n      tag_16\n      jump\t// in\n    tag_15:\n      swap1\n      pop\n        /* \"SolvedProblems-stymrj/DigitsProduct.sol\":436:438  10 */\n      0x0a\n        /* \"SolvedProblems-stymrj/DigitsProduct.sol\":429:438  num /= 10 */\n      dup4\n      tag_17\n      swap2\n      swap1\n      tag_18\n      jump\t// in\n    tag_17:\n      swap3\n      pop\n        /* \"SolvedProblems-stymrj/DigitsProduct.sol\":369:448  while (num != 0){... */\n      jump(tag_11)\n    tag_12:\n        /* \"SolvedProblems-stymrj/DigitsProduct.sol\":467:470  ans */\n      dup1\n        /* \"SolvedProblems-stymrj/DigitsProduct.sol\":460:470  return ans */\n      swap2\n      pop\n      pop\n        /* \"SolvedProblems-stymrj/DigitsProduct.sol\":278:478  function getProduct(uint num) public pure returns (uint ){... */\n      swap2\n      swap1\n      pop\n      jump\t// out\n        /* \"#utility.yul\":88:205   */\n    tag_20:\n        /* \"#utility.yul\":197:198   */\n      0x00\n        /* \"#utility.yul\":194:195   */\n      dup1\n        /* \"#utility.yul\":187:199   */\n      revert\n        /* \"#utility.yul\":334:411   */\n    tag_22:\n        /* \"#utility.yul\":371:378   */\n      0x00\n        /* \"#utility.yul\":400:405   */\n      dup2\n        /* \"#utility.yul\":389:405   */\n      swap1\n      pop\n        /* \"#utility.yul\":334:411   */\n      swap2\n      swap1\n      pop\n      jump\t// out\n        /* \"#utility.yul\":417:539   */\n    tag_23:\n        /* \"#utility.yul\":490:514   */\n      tag_34\n        /* \"#utility.yul\":508:513   */\n      dup2\n        /* \"#utility.yul\":490:514   */\n      tag_22\n      jump\t// in\n    tag_34:\n        /* \"#utility.yul\":483:488   */\n      dup2\n        /* \"#utility.yul\":480:515   */\n      eq\n        /* \"#utility.yul\":470:533   */\n      tag_35\n      jumpi\n        /* \"#utility.yul\":529:530   */\n      0x00\n        /* \"#utility.yul\":526:527   */\n      dup1\n        /* \"#utility.yul\":519:531   */\n      revert\n        /* \"#utility.yul\":470:533   */\n    tag_35:\n        /* \"#utility.yul\":417:539   */\n      pop\n      jump\t// out\n        /* \"#utility.yul\":545:684   */\n    tag_24:\n        /* \"#utility.yul\":591:596   */\n      0x00\n        /* \"#utility.yul\":629:635   */\n      dup2\n        /* \"#utility.yul\":616:636   */\n      calldataload\n        /* \"#utility.yul\":607:636   */\n      swap1\n      pop\n        /* \"#utility.yul\":645:678   */\n      tag_37\n        /* \"#utility.yul\":672:677   */\n      dup2\n        /* \"#utility.yul\":645:678   */\n      tag_23\n      jump\t// in\n    tag_37:\n        /* \"#utility.yul\":545:684   */\n      swap3\n      swap2\n      pop\n      pop\n      jump\t// out\n        /* \"#utility.yul\":690:1019   */\n    tag_6:\n        /* \"#utility.yul\":749:755   */\n      0x00\n        /* \"#utility.yul\":798:800   */\n      0x20\n        /* \"#utility.yul\":786:795   */\n      dup3\n        /* \"#utility.yul\":777:784   */\n      dup5\n        /* \"#utility.yul\":773:796   */\n      sub\n        /* \"#utility.yul\":769:801   */\n      slt\n        /* \"#utility.yul\":766:885   */\n      iszero\n      tag_39\n      jumpi\n        /* \"#utility.yul\":804:883   */\n      tag_40\n      tag_20\n      jump\t// in\n    tag_40:\n        /* \"#utility.yul\":766:885   */\n    tag_39:\n        /* \"#utility.yul\":924:925   */\n      0x00\n        /* \"#utility.yul\":949:1002   */\n      tag_41\n        /* \"#utility.yul\":994:1001   */\n      dup5\n        /* \"#utility.yul\":985:991   */\n      dup3\n        /* \"#utility.yul\":974:983   */\n      dup6\n        /* \"#utility.yul\":970:992   */\n      add\n        /* \"#utility.yul\":949:1002   */\n      tag_24\n      jump\t// in\n    tag_41:\n        /* \"#utility.yul\":939:1002   */\n      swap2\n      pop\n        /* \"#utility.yul\":895:1012   */\n      pop\n        /* \"#utility.yul\":690:1019   */\n      swap3\n      swap2\n      pop\n      pop\n      jump\t// out\n        /* \"#utility.yul\":1025:1143   */\n    tag_25:\n        /* \"#utility.yul\":1112:1136   */\n      tag_43\n        /* \"#utility.yul\":1130:1135   */\n      dup2\n        /* \"#utility.yul\":1112:1136   */\n      tag_22\n      jump\t// in\n    tag_43:\n        /* \"#utility.yul\":1107:1110   */\n      dup3\n        /* \"#utility.yul\":1100:1137   */\n      mstore\n        /* \"#utility.yul\":1025:1143   */\n      pop\n      pop\n      jump\t// out\n        /* \"#utility.yul\":1149:1371   */\n    tag_9:\n        /* \"#utility.yul\":1242:1246   */\n      0x00\n        /* \"#utility.yul\":1280:1282   */\n      0x20\n        /* \"#utility.yul\":1269:1278   */\n      dup3\n        /* \"#utility.yul\":1265:1283   */\n      add\n        /* \"#utility.yul\":1257:1283   */\n      swap1\n      pop\n        /* \"#utility.yul\":1293:1364   */\n      tag_45\n        /* \"#utility.yul\":1361:1362   */\n      0x00\n        /* \"#utility.yul\":1350:1359   */\n      dup4\n        /* \"#utility.yul\":1346:1363   */\n      add\n        /* \"#utility.yul\":1337:1343   */\n      dup5\n        /* \"#utility.yul\":1293:1364   */\n      tag_25\n      jump\t// in\n    tag_45:\n        /* \"#utility.yul\":1149:1371   */\n      swap3\n      swap2\n      pop\n      pop\n      jump\t// out\n        /* \"#utility.yul\":1377:1557   */\n    tag_26:\n        /* \"#utility.yul\":1425:1502   */\n      0x4e487b7100000000000000000000000000000000000000000000000000000000\n        /* \"#utility.yul\":1422:1423   */\n      0x00\n        /* \"#utility.yul\":1415:1503   */\n      mstore\n        /* \"#utility.yul\":1522:1526   */\n      0x12\n        /* \"#utility.yul\":1519:1520   */\n      0x04\n        /* \"#utility.yul\":1512:1527   */\n      mstore\n        /* \"#utility.yul\":1546:1550   */\n      0x24\n        /* \"#utility.yul\":1543:1544   */\n      0x00\n        /* \"#utility.yul\":1536:1551   */\n      revert\n        /* \"#utility.yul\":1563:1739   */\n    tag_14:\n        /* \"#utility.yul\":1595:1596   */\n      0x00\n        /* \"#utility.yul\":1612:1632   */\n      tag_48\n        /* \"#utility.yul\":1630:1631   */\n      dup3\n        /* \"#utility.yul\":1612:1632   */\n      tag_22\n      jump\t// in\n    tag_48:\n        /* \"#utility.yul\":1607:1632   */\n      swap2\n      pop\n        /* \"#utility.yul\":1646:1666   */\n      tag_49\n        /* \"#utility.yul\":1664:1665   */\n      dup4\n        /* \"#utility.yul\":1646:1666   */\n      tag_22\n      jump\t// in\n    tag_49:\n        /* \"#utility.yul\":1641:1666   */\n      swap3\n      pop\n        /* \"#utility.yul\":1685:1686   */\n      dup3\n        /* \"#utility.yul\":1675:1710   */\n      tag_50\n      jumpi\n        /* \"#utility.yul\":1690:1708   */\n      tag_51\n      tag_26\n      jump\t// in\n    tag_51:\n        /* \"#utility.yul\":1675:1710   */\n    tag_50:\n        /* \"#utility.yul\":1731:1732   */\n      dup3\n        /* \"#utility.yul\":1728:1729   */\n      dup3\n        /* \"#utility.yul\":1724:1733   */\n      mod\n        /* \"#utility.yul\":1719:1733   */\n      swap1\n      pop\n        /* \"#utility.yul\":1563:1739   */\n      swap3\n      swap2\n      pop\n      pop\n      jump\t// out\n        /* \"#utility.yul\":1745:1925   */\n    tag_27:\n        /* \"#utility.yul\":1793:1870   */\n      0x4e487b7100000000000000000000000000000000000000000000000000000000\n        /* \"#utility.yul\":1790:1791   */\n      0x00\n        /* \"#utility.yul\":1783:1871   */\n      mstore\n        /* \"#utility.yul\":1890:1894   */\n      0x11\n        /* \"#utility.yul\":1887:1888   */\n      0x04\n        /* \"#utility.yul\":1880:1895   */\n      mstore\n        /* \"#utility.yul\":1914:1918   */\n      0x24\n        /* \"#utility.yul\":1911:1912   */\n      0x00\n        /* \"#utility.yul\":1904:1919   */\n      revert\n        /* \"#utility.yul\":1931:2341   */\n    tag_16:\n        /* \"#utility.yul\":1971:1978   */\n      0x00\n        /* \"#utility.yul\":1994:2014   */\n      tag_54\n        /* \"#utility.yul\":2012:2013   */\n      dup3\n        /* \"#utility.yul\":1994:2014   */\n      tag_22\n      jump\t// in\n    tag_54:\n        /* \"#utility.yul\":1989:2014   */\n      swap2\n      pop\n        /* \"#utility.yul\":2028:2048   */\n      tag_55\n        /* \"#utility.yul\":2046:2047   */\n      dup4\n        /* \"#utility.yul\":2028:2048   */\n      tag_22\n      jump\t// in\n    tag_55:\n        /* \"#utility.yul\":2023:2048   */\n      swap3\n      pop\n        /* \"#utility.yul\":2083:2084   */\n      dup3\n        /* \"#utility.yul\":2080:2081   */\n      dup3\n        /* \"#utility.yul\":2076:2085   */\n      mul\n        /* \"#utility.yul\":2105:2135   */\n      tag_56\n        /* \"#utility.yul\":2123:2134   */\n      dup2\n        /* \"#utility.yul\":2105:2135   */\n      tag_22\n      jump\t// in\n    tag_56:\n        /* \"#utility.yul\":2094:2135   */\n      swap2\n      pop\n        /* \"#utility.yul\":2284:2285   */\n      dup3\n        /* \"#utility.yul\":2275:2282   */\n      dup3\n        /* \"#utility.yul\":2271:2286   */\n      div\n        /* \"#utility.yul\":2268:2269   */\n      dup5\n        /* \"#utility.yul\":2265:2287   */\n      eq\n        /* \"#utility.yul\":2245:2246   */\n      dup4\n        /* \"#utility.yul\":2238:2247   */\n      iszero\n        /* \"#utility.yul\":2218:2301   */\n      or\n        /* \"#utility.yul\":2195:2334   */\n      tag_57\n      jumpi\n        /* \"#utility.yul\":2314:2332   */\n      tag_58\n      tag_27\n      jump\t// in\n    tag_58:\n        /* \"#utility.yul\":2195:2334   */\n    tag_57:\n        /* \"#utility.yul\":1979:2341   */\n      pop\n        /* \"#utility.yul\":1931:2341   */\n      swap3\n      swap2\n      pop\n      pop\n      jump\t// out\n        /* \"#utility.yul\":2347:2532   */\n    tag_18:\n        /* \"#utility.yul\":2387:2388   */\n      0x00\n        /* \"#utility.yul\":2404:2424   */\n      tag_60\n        /* \"#utility.yul\":2422:2423   */\n      dup3\n        /* \"#utility.yul\":2404:2424   */\n      tag_22\n      jump\t// in\n    tag_60:\n        /* \"#utility.yul\":2399:2424   */\n      swap2\n      pop\n        /* \"#utility.yul\":2438:2458   */\n      tag_61\n        /* \"#utility.yul\":2456:2457   */\n      dup4\n        /* \"#utility.yul\":2438:2458   */\n      tag_22\n      jump\t// in\n    tag_61:\n        /* \"#utility.yul\":2433:2458   */\n      swap3\n      pop\n        /* \"#utility.yul\":2477:2478   */\n      dup3\n        /* \"#utility.yul\":2467:2502   */\n      tag_62\n      jumpi\n        /* \"#utility.yul\":2482:2500   */\n      tag_63\n      tag_26\n      jump\t// in\n    tag_63:\n        /* \"#utility.yul\":2467:2502   */\n    tag_62:\n        /* \"#utility.yul\":2524:2525   */\n      dup3\n        /* \"#utility.yul\":2521:2522   */\n      dup3\n        /* \"#utility.yul\":2517:2526   */\n      div\n        /* \"#utility.yul\":2512:2526   */\n      swap1\n      pop\n        /* \"#utility.yul\":2347:2532   */\n      swap3\n      swap2\n      pop\n      pop\n      jump\t// out\n\n    auxdata: 0xa26469706673582212205d731bd4d26fb859b6db0e039ade22eae57710c8a0be92a3d70e29c10ef4372964736f6c63430008120033\n}\n",
				"bytecode": {
					"linkReferences": {},
					"object": "608060405234801561001057600080fd5b50610271806100206000396000f3fe608060405234801561001057600080fd5b506004361061002b5760003560e01c8063b9db15b414610030575b600080fd5b61004a600480360381019061004591906100e2565b610060565b604051610057919061011e565b60405180910390f35b600080600190505b6000831461009e57600a8361007d9190610168565b8161008891906101c8565b9050600a83610097919061020a565b9250610068565b80915050919050565b600080fd5b6000819050919050565b6100bf816100ac565b81146100ca57600080fd5b50565b6000813590506100dc816100b6565b92915050565b6000602082840312156100f8576100f76100a7565b5b6000610106848285016100cd565b91505092915050565b610118816100ac565b82525050565b6000602082019050610133600083018461010f565b92915050565b7f4e487b7100000000000000000000000000000000000000000000000000000000600052601260045260246000fd5b6000610173826100ac565b915061017e836100ac565b92508261018e5761018d610139565b5b828206905092915050565b7f4e487b7100000000000000000000000000000000000000000000000000000000600052601160045260246000fd5b60006101d3826100ac565b91506101de836100ac565b92508282026101ec816100ac565b9150828204841483151761020357610202610199565b5b5092915050565b6000610215826100ac565b9150610220836100ac565b9250826102305761022f610139565b5b82820490509291505056fea26469706673582212205d731bd4d26fb859b6db0e039ade22eae57710c8a0be92a3d70e29c10ef4372964736f6c63430008120033",
					"opcodes": "PUSH1 0x80 PUSH1 0x40 MSTORE CALLVALUE DUP1 ISZERO PUSH2 0x10 JUMPI PUSH1 0x0 DUP1 REVERT JUMPDEST POP PUSH2 0x271 DUP1 PUSH2 0x20 PUSH1 0x0 CODECOPY PUSH1 0x0 RETURN INVALID PUSH1 0x80 PUSH1 0x40 MSTORE CALLVALUE DUP1 ISZERO PUSH2 0x10 JUMPI PUSH1 0x0 DUP1 REVERT JUMPDEST POP PUSH1 0x4 CALLDATASIZE LT PUSH2 0x2B JUMPI PUSH1 0x0 CALLDATALOAD PUSH1 0xE0 SHR DUP1 PUSH4 0xB9DB15B4 EQ PUSH2 0x30 JUMPI JUMPDEST PUSH1 0x0 DUP1 REVERT JUMPDEST PUSH2 0x4A PUSH1 0x4 DUP1 CALLDATASIZE SUB DUP2 ADD SWAP1 PUSH2 0x45 SWAP2 SWAP1 PUSH2 0xE2 JUMP JUMPDEST PUSH2 0x60 JUMP JUMPDEST PUSH1 0x40 MLOAD PUSH2 0x57 SWAP2 SWAP1 PUSH2 0x11E JUMP JUMPDEST PUSH1 0x40 MLOAD DUP1 SWAP2 SUB SWAP1 RETURN JUMPDEST PUSH1 0x0 DUP1 PUSH1 0x1 SWAP1 POP JUMPDEST PUSH1 0x0 DUP4 EQ PUSH2 0x9E JUMPI PUSH1 0xA DUP4 PUSH2 0x7D SWAP2 SWAP1 PUSH2 0x168 JUMP JUMPDEST DUP2 PUSH2 0x88 SWAP2 SWAP1 PUSH2 0x1C8 JUMP JUMPDEST SWAP1 POP PUSH1 0xA DUP4 PUSH2 0x97 SWAP2 SWAP1 PUSH2 0x20A JUMP JUMPDEST SWAP3 POP PUSH2 0x68 JUMP JUMPDEST DUP1 SWAP2 POP POP SWAP2 SWAP1 POP JUMP JUMPDEST PUSH1 0x0 DUP1 REVERT JUMPDEST PUSH1 0x0 DUP2 SWAP1 POP SWAP2 SWAP1 POP JUMP JUMPDEST PUSH2 0xBF DUP2 PUSH2 0xAC JUMP JUMPDEST DUP2 EQ PUSH2 0xCA JUMPI PUSH1 0x0 DUP1 REVERT JUMPDEST POP JUMP JUMPDEST PUSH1 0x0 DUP2 CALLDATALOAD SWAP1 POP PUSH2 0xDC DUP2 PUSH2 0xB6 JUMP JUMPDEST SWAP3 SWAP2 POP POP JUMP JUMPDEST PUSH1 0x0 PUSH1 0x20 DUP3 DUP5 SUB SLT ISZERO PUSH2 0xF8 JUMPI PUSH2 0xF7 PUSH2 0xA7 JUMP JUMPDEST JUMPDEST PUSH1 0x0 PUSH2 0x106 DUP5 DUP3 DUP6 ADD PUSH2 0xCD JUMP JUMPDEST SWAP2 POP POP SWAP3 SWAP2 POP POP JUMP JUMPDEST PUSH2 0x118 DUP2 PUSH2 0xAC JUMP JUMPDEST DUP3 MSTORE POP POP JUMP JUMPDEST PUSH1 0x0 PUSH1 0x20 DUP3 ADD SWAP1 POP PUSH2 0x133 PUSH1 0x0 DUP4 ADD DUP5 PUSH2 0x10F JUMP JUMPDEST SWAP3 SWAP2 POP POP JUMP JUMPDEST PUSH32 0x4E487B7100000000000000000000000000000000000000000000000000000000 PUSH1 0x0 MSTORE PUSH1 0x12 PUSH1 0x4 MSTORE PUSH1 0x24 PUSH1 0x0 REVERT JUMPDEST PUSH1 0x0 PUSH2 0x173 DUP3 PUSH2 0xAC JUMP JUMPDEST SWAP2 POP PUSH2 0x17E DUP4 PUSH2 0xAC JUMP JUMPDEST SWAP3 POP DUP3 PUSH2 0x18E JUMPI PUSH2 0x18D PUSH2 0x139 JUMP JUMPDEST JUMPDEST DUP3 DUP3 MOD SWAP1 POP SWAP3 SWAP2 POP POP JUMP JUMPDEST PUSH32 0x4E487B7100000000000000000000000000000000000000000000000000000000 PUSH1 0x0 MSTORE PUSH1 0x11 PUSH1 0x4 MSTORE PUSH1 0x24 PUSH1 0x0 REVERT JUMPDEST PUSH1 0x0 PUSH2 0x1D3 DUP3 PUSH2 0xAC JUMP JUMPDEST SWAP2 POP PUSH2 0x1DE DUP4 PUSH2 0xAC JUMP JUMPDEST SWAP3 POP DUP3 DUP3 MUL PUSH2 0x1EC DUP2 PUSH2 0xAC JUMP JUMPDEST SWAP2 POP DUP3 DUP3 DIV DUP5 EQ DUP4 ISZERO OR PUSH2 0x203 JUMPI PUSH2 0x202 PUSH2 0x199 JUMP JUMPDEST JUMPDEST POP SWAP3 SWAP2 POP POP JUMP JUMPDEST PUSH1 0x0 PUSH2 0x215 DUP3 PUSH2 0xAC JUMP JUMPDEST SWAP2 POP PUSH2 0x220 DUP4 PUSH2 0xAC JUMP JUMPDEST SWAP3 POP DUP3 PUSH2 0x230 JUMPI PUSH2 0x22F PUSH2 0x139 JUMP JUMPDEST JUMPDEST DUP3 DUP3 DIV SWAP1 POP SWAP3 SWAP2 POP POP JUMP INVALID LOG2 PUSH5 0x6970667358 0x22 SLT KECCAK256 0x5D PUSH20 0x1BD4D26FB859B6DB0E039ADE22EAE57710C8A0BE SWAP3 LOG3 0xD7 0xE 0x29 0xC1 0xE DELEGATECALL CALLDATACOPY 0x29 PUSH5 0x736F6C6343 STOP ADDMOD SLT STOP CALLER "
				},
				"gasEstimates": {
					"creation": {
						"codeDepositCost": "125000",
						"executionCost": "171",
						"totalCost": "125171"
					},
					"external": {
						"getProduct(uint256)": "infinite"
					}
				},
				"methodIdentifiers": {
					"getProduct(uint256)": "b9db15b4"
				}
			},
			"storageLayout": {
				"storage": [],
				"types": null
			},
			"userdoc": {
				"kind": "user",
				"methods": {},
				"version": 1
			}
		}
	}
}